{
  "_format": "hh-sol-artifact-1",
  "contractName": "Invoice",
  "sourceName": "contracts/Invoice.sol",
  "abi": [
    {
      "inputs": [],
      "stateMutability": "nonpayable",
      "type": "constructor"
    },
    {
      "inputs": [
        {
          "internalType": "uint256",
          "name": "_buyerPAN",
          "type": "uint256"
        },
        {
          "internalType": "uint256",
          "name": "_sellerPAN",
          "type": "uint256"
        },
        {
          "internalType": "bool",
          "name": "_payment_status",
          "type": "bool"
        },
        {
          "internalType": "uint256",
          "name": "_amount",
          "type": "uint256"
        }
      ],
      "name": "Entry",
      "outputs": [
        {
          "internalType": "uint256",
          "name": "",
          "type": "uint256"
        }
      ],
      "stateMutability": "nonpayable",
      "type": "function"
    },
    {
      "inputs": [
        {
          "internalType": "bool",
          "name": "_newPay",
          "type": "bool"
        },
        {
          "internalType": "uint256",
          "name": "_serialNo",
          "type": "uint256"
        },
        {
          "internalType": "uint256",
          "name": "_sellerPAN",
          "type": "uint256"
        }
      ],
      "name": "Payment",
      "outputs": [],
      "stateMutability": "nonpayable",
      "type": "function"
    },
    {
      "inputs": [],
      "name": "current_no",
      "outputs": [
        {
          "internalType": "uint256",
          "name": "",
          "type": "uint256"
        }
      ],
      "stateMutability": "view",
      "type": "function"
    },
    {
      "inputs": [
        {
          "internalType": "uint256",
          "name": "",
          "type": "uint256"
        },
        {
          "internalType": "uint256",
          "name": "",
          "type": "uint256"
        }
      ],
      "name": "ledger",
      "outputs": [
        {
          "internalType": "uint256",
          "name": "serial",
          "type": "uint256"
        },
        {
          "internalType": "uint256",
          "name": "BuyerPAN",
          "type": "uint256"
        },
        {
          "internalType": "uint256",
          "name": "SellerPAN",
          "type": "uint256"
        },
        {
          "internalType": "bool",
          "name": "Payment_status",
          "type": "bool"
        },
        {
          "internalType": "uint256",
          "name": "Amount",
          "type": "uint256"
        }
      ],
      "stateMutability": "view",
      "type": "function"
    },
    {
      "inputs": [
        {
          "internalType": "uint256",
          "name": "",
          "type": "uint256"
        }
      ],
      "name": "track_b",
      "outputs": [
        {
          "internalType": "uint256",
          "name": "",
          "type": "uint256"
        }
      ],
      "stateMutability": "view",
      "type": "function"
    },
    {
      "inputs": [
        {
          "internalType": "uint256",
          "name": "",
          "type": "uint256"
        }
      ],
      "name": "track_s",
      "outputs": [
        {
          "internalType": "uint256",
          "name": "",
          "type": "uint256"
        }
      ],
      "stateMutability": "view",
      "type": "function"
    }
  ],
  "bytecode": "0x608060405234801561001057600080fd5b50336000806101000a81548173ffffffffffffffffffffffffffffffffffffffff021916908373ffffffffffffffffffffffffffffffffffffffff160217905550600060018190555061081b806100686000396000f3fe608060405234801561001057600080fd5b50600436106100625760003560e01c80630833fab514610067578063366c436014610097578063690757e9146100c7578063b1b0717a146100e5578063c85acb4214610115578063fc61b12714610131575b600080fd5b610081600480360381019061007c919061047d565b610165565b60405161008e91906104b9565b60405180910390f35b6100b160048036038101906100ac919061050c565b61017d565b6040516100be91906104b9565b60405180910390f35b6100cf61028a565b6040516100dc91906104b9565b60405180910390f35b6100ff60048036038101906100fa919061047d565b610290565b60405161010c91906104b9565b60405180910390f35b61012f600480360381019061012a9190610573565b6102a8565b005b61014b600480360381019061014691906105c6565b6103e2565b60405161015c959493929190610615565b60405180910390f35b60046020528060005260406000206000915090505481565b600060018060008282546101919190610697565b92505081905550600260008681526020019081526020016000206040518060a001604052806001548152602001878152602001868152602001851515815260200184815250908060018154018082558091505060019003906000526020600020906005020160009091909190915060008201518160000155602082015181600101556040820151816002015560608201518160030160006101000a81548160ff021916908315150217905550608082015181600401555050846003600060015481526020019081526020016000208190555083600460006001548152602001908152602001600020819055506001549050949350505050565b60015481565b60036020528060005260406000206000915090505481565b60006003600084815260200190815260200160002054905060006004600085815260200190815260200160002054905082811461031a576040517f08c379a00000000000000000000000000000000000000000000000000000000081526004016103119061074e565b60405180910390fd5b60005b60026000848152602001908152602001600020805490508110156103da57846002600085815260200190815260200160002082815481106103615761036061076e565b5b906000526020600020906005020160000154036103c7578560026000858152602001908152602001600020828154811061039e5761039d61076e565b5b906000526020600020906005020160030160006101000a81548160ff0219169083151502179055505b80806103d29061079d565b91505061031d565b505050505050565b600260205281600052604060002081815481106103fe57600080fd5b9060005260206000209060050201600091509150508060000154908060010154908060020154908060030160009054906101000a900460ff16908060040154905085565b600080fd5b6000819050919050565b61045a81610447565b811461046557600080fd5b50565b60008135905061047781610451565b92915050565b60006020828403121561049357610492610442565b5b60006104a184828501610468565b91505092915050565b6104b381610447565b82525050565b60006020820190506104ce60008301846104aa565b92915050565b60008115159050919050565b6104e9816104d4565b81146104f457600080fd5b50565b600081359050610506816104e0565b92915050565b6000806000806080858703121561052657610525610442565b5b600061053487828801610468565b945050602061054587828801610468565b9350506040610556878288016104f7565b925050606061056787828801610468565b91505092959194509250565b60008060006060848603121561058c5761058b610442565b5b600061059a868287016104f7565b93505060206105ab86828701610468565b92505060406105bc86828701610468565b9150509250925092565b600080604083850312156105dd576105dc610442565b5b60006105eb85828601610468565b92505060206105fc85828601610468565b9150509250929050565b61060f816104d4565b82525050565b600060a08201905061062a60008301886104aa565b61063760208301876104aa565b61064460408301866104aa565b6106516060830185610606565b61065e60808301846104aa565b9695505050505050565b7f4e487b7100000000000000000000000000000000000000000000000000000000600052601160045260246000fd5b60006106a282610447565b91506106ad83610447565b92508282019050808211156106c5576106c4610668565b5b92915050565b600082825260208201905092915050565b7f54686520696e766f69636520646f65736e74206d61746368207769746820746860008201527f652073656c6c657250414e000000000000000000000000000000000000000000602082015250565b6000610738602b836106cb565b9150610743826106dc565b604082019050919050565b600060208201905081810360008301526107678161072b565b9050919050565b7f4e487b7100000000000000000000000000000000000000000000000000000000600052603260045260246000fd5b60006107a882610447565b91507fffffffffffffffffffffffffffffffffffffffffffffffffffffffffffffffff82036107da576107d9610668565b5b60018201905091905056fea264697066735822122070578ccaecabc927bc3226c721a57aade2b2e470682c2ed229a7d871ac29a3fb64736f6c63430008110033",
  "linkReferences": {},
  "deployedLinkReferences": {}
}